{
  "contractName": "Auction",
  "abi": [
    {
      "inputs": [
        {
          "internalType": "address",
          "name": "_creator",
          "type": "address"
        },
        {
          "internalType": "string",
          "name": "_itemName",
          "type": "string"
        },
        {
          "internalType": "uint256",
          "name": "_startPrice",
          "type": "uint256"
        },
        {
          "internalType": "uint256",
          "name": "_durationInMinutes",
          "type": "uint256"
        }
      ],
      "stateMutability": "nonpayable",
      "type": "constructor"
    },
    {
      "inputs": [],
      "name": "ReentrancyGuardReentrantCall",
      "type": "error"
    },
    {
      "anonymous": false,
      "inputs": [
        {
          "indexed": false,
          "internalType": "address",
          "name": "winner",
          "type": "address"
        },
        {
          "indexed": false,
          "internalType": "uint256",
          "name": "amount",
          "type": "uint256"
        }
      ],
      "name": "AuctionEnded",
      "type": "event"
    },
    {
      "anonymous": false,
      "inputs": [
        {
          "indexed": false,
          "internalType": "address",
          "name": "bidder",
          "type": "address"
        },
        {
          "indexed": false,
          "internalType": "uint256",
          "name": "amount",
          "type": "uint256"
        }
      ],
      "name": "NewHighestBid",
      "type": "event"
    },
    {
      "anonymous": false,
      "inputs": [
        {
          "indexed": false,
          "internalType": "address",
          "name": "to",
          "type": "address"
        },
        {
          "indexed": false,
          "internalType": "uint256",
          "name": "amount",
          "type": "uint256"
        }
      ],
      "name": "RefundIssued",
      "type": "event"
    },
    {
      "inputs": [],
      "name": "auctionCreator",
      "outputs": [
        {
          "internalType": "address",
          "name": "",
          "type": "address"
        }
      ],
      "stateMutability": "view",
      "type": "function"
    },
    {
      "inputs": [],
      "name": "endTime",
      "outputs": [
        {
          "internalType": "uint256",
          "name": "",
          "type": "uint256"
        }
      ],
      "stateMutability": "view",
      "type": "function"
    },
    {
      "inputs": [],
      "name": "ended",
      "outputs": [
        {
          "internalType": "bool",
          "name": "",
          "type": "bool"
        }
      ],
      "stateMutability": "view",
      "type": "function"
    },
    {
      "inputs": [],
      "name": "highestBid",
      "outputs": [
        {
          "internalType": "uint256",
          "name": "",
          "type": "uint256"
        }
      ],
      "stateMutability": "view",
      "type": "function"
    },
    {
      "inputs": [],
      "name": "highestBidder",
      "outputs": [
        {
          "internalType": "address",
          "name": "",
          "type": "address"
        }
      ],
      "stateMutability": "view",
      "type": "function"
    },
    {
      "inputs": [],
      "name": "itemName",
      "outputs": [
        {
          "internalType": "string",
          "name": "",
          "type": "string"
        }
      ],
      "stateMutability": "view",
      "type": "function"
    },
    {
      "inputs": [],
      "name": "startPrice",
      "outputs": [
        {
          "internalType": "uint256",
          "name": "",
          "type": "uint256"
        }
      ],
      "stateMutability": "view",
      "type": "function"
    },
    {
      "inputs": [],
      "name": "placeBid",
      "outputs": [],
      "stateMutability": "payable",
      "type": "function"
    },
    {
      "inputs": [],
      "name": "isAuctionEnded",
      "outputs": [
        {
          "internalType": "bool",
          "name": "",
          "type": "bool"
        }
      ],
      "stateMutability": "view",
      "type": "function"
    },
    {
      "inputs": [],
      "name": "endAuction",
      "outputs": [],
      "stateMutability": "nonpayable",
      "type": "function"
    }
  ],
  "bytecode": "0x608060405234801562000010575f80fd5b50604051620009d3380380620009d38339810160408190526200003391620000a1565b60015f81905580546001600160a01b0319166001600160a01b03861617905560026200006084826200022a565b5060038290556200007381603c62000306565b6200007f904262000326565b600455506200033c92505050565b634e487b7160e01b5f52604160045260245ffd5b5f805f8060808587031215620000b5575f80fd5b84516001600160a01b0381168114620000cc575f80fd5b602086810151919550906001600160401b0380821115620000eb575f80fd5b818801915088601f830112620000ff575f80fd5b8151818111156200011457620001146200008d565b604051601f8201601f19908116603f011681019083821181831017156200013f576200013f6200008d565b816040528281528b8684870101111562000157575f80fd5b5f93505b828410156200017a57848401860151818501870152928501926200015b565b5f928101909501919091525050506040860151606090960151949790965092505050565b600181811c90821680620001b357607f821691505b602082108103620001d257634e487b7160e01b5f52602260045260245ffd5b50919050565b601f82111562000225575f81815260208120601f850160051c81016020861015620002005750805b601f850160051c820191505b8181101562000221578281556001016200020c565b5050505b505050565b81516001600160401b038111156200024657620002466200008d565b6200025e816200025784546200019e565b84620001d8565b602080601f83116001811462000294575f84156200027c5750858301515b5f19600386901b1c1916600185901b17855562000221565b5f85815260208120601f198616915b82811015620002c457888601518255948401946001909101908401620002a3565b5085821015620002e257878501515f19600388901b60f8161c191681555b5050505050600190811b01905550565b634e487b7160e01b5f52601160045260245ffd5b8082028115828204841417620003205762000320620002f2565b92915050565b80820180821115620003205762000320620002f2565b610689806200034a5f395ff3fe60806040526004361061008f575f3560e01c806391f901571161005757806391f9015714610153578063d57bde7914610177578063ecfc7ecc1461018c578063f1a9af8914610196578063fe67a54b146101ab575f80fd5b806312fa6feb146100935780633197cbb6146100c157806340401fea146100e457806343891f3a14610105578063677f8c141461011c575b5f80fd5b34801561009e575f80fd5b506005546100ac9060ff1681565b60405190151581526020015b60405180910390f35b3480156100cc575f80fd5b506100d660045481565b6040519081526020016100b8565b3480156100ef575f80fd5b506100f86101bf565b6040516100b891906105d0565b348015610110575f80fd5b506004544210156100ac565b348015610127575f80fd5b5060015461013b906001600160a01b031681565b6040516001600160a01b0390911681526020016100b8565b34801561015e575f80fd5b5060055461013b9061010090046001600160a01b031681565b348015610182575f80fd5b506100d660065481565b61019461024b565b005b3480156101a1575f80fd5b506100d660035481565b3480156101b6575f80fd5b5061019461040e565b600280546101cc9061061b565b80601f01602080910402602001604051908101604052809291908181526020018280546101f89061061b565b80156102435780601f1061021a57610100808354040283529160200191610243565b820191905f5260205f20905b81548152906001019060200180831161022657829003601f168201915b505050505081565b600454421061029a5760405162461bcd60e51b815260206004820152601660248201527520bab1ba34b7b71030b63932b0b23c9032b73232b21760511b60448201526064015b60405180910390fd5b6102a26105a8565b60065434116103035760405162461bcd60e51b815260206004820152602760248201527f546865726520616c7265616479206973206120686967686572206f722065717560448201526630b6103134b21760c91b6064820152608401610291565b60055461010090046001600160a01b0316156103a6576005546006546040516101009092046001600160a01b0316916108fc82150291905f818181858888f19350505050158015610356573d5f803e3d5ffd5b50600554600654604080516101009093046001600160a01b0316835260208301919091527fa171b6942063c6f2800ce40a780edce37baa2b618571b11eedd1e69e626e7d76910160405180910390a15b60058054610100600160a81b031916336101008102919091179091553460068190556040805192835260208301919091527fdeda60fb6e38f55d4ccab679f50f933d04b1dca8584775216dbdac46f251ca4a91015b60405180910390a161040c60015f55565b565b6004544210156104595760405162461bcd60e51b815260206004820152601660248201527520bab1ba34b7b7103737ba103cb2ba1032b73232b21760511b6044820152606401610291565b6104616105a8565b60055460ff16156104ad5760405162461bcd60e51b815260206004820152601660248201527520bab1ba34b7b71030b63932b0b23c9032b73232b21760511b6044820152606401610291565b6001546001600160a01b031633146105155760405162461bcd60e51b815260206004820152602560248201527f4f6e6c79207468652063726561746f722063616e20656e6420746865206175636044820152643a34b7b71760d91b6064820152608401610291565b6005805460ff19166001908117909155546006546040516001600160a01b039092169181156108fc0291905f818181858888f1935050505015801561055c573d5f803e3d5ffd5b50600554600654604080516101009093046001600160a01b0316835260208301919091527fdaec4582d5d9595688c8c98545fdd1c696d41c6aeaeb636737e84ed2f5c00eda91016103fb565b60025f54036105ca57604051633ee5aeb560e01b815260040160405180910390fd5b60025f55565b5f6020808352835180828501525f5b818110156105fb578581018301518582016040015282016105df565b505f604082860101526040601f19601f8301168501019250505092915050565b600181811c9082168061062f57607f821691505b60208210810361064d57634e487b7160e01b5f52602260045260245ffd5b5091905056fea264697066735822122091ac8d1014f5d7ff40c2cc225f297219f12fbb0f22c2cb8ab2bdd2ad88b5fd4c64736f6c63430008140033",
  "immutableReferences": {},
  "source": "// SPDX-License-Identifier: MIT\r\npragma solidity ^0.8.20;\r\nimport \"@openzeppelin/contracts/utils/ReentrancyGuard.sol\";\r\n// Factory contract to deploy multiple auctions\r\ncontract AuctionFactory {\r\n    Auction[] public auctions;\r\n\r\n    // Event for auction creation\r\n    event AuctionCreated(address auctionAddress, string itemName, address creator);\r\n\r\n    // Create a new Auction instance\r\n    function createAuction(string memory _itemName, uint _startingPrice, uint _durationInMinutes) public {\r\n        Auction newAuction = new Auction(msg.sender, _itemName, _startingPrice, _durationInMinutes);\r\n        auctions.push(newAuction);\r\n        emit AuctionCreated(address(newAuction), _itemName, msg.sender);\r\n    }\r\n\r\n    // Return all auction instances\r\n    function getAllAuctions() public view returns (Auction[] memory) {\r\n        return auctions;\r\n    }\r\n}\r\n\r\n// Main auction contract\r\ncontract Auction is ReentrancyGuard {\r\n    address public auctionCreator;\r\n    string public itemName;\r\n    uint public startPrice;\r\n    uint public endTime;\r\n    bool public ended;\r\n\r\n    address public highestBidder;\r\n    uint public highestBid;\r\n\r\n    // Events to track actions\r\n    event NewHighestBid(address bidder, uint amount);\r\n    event AuctionEnded(address winner, uint amount);\r\n    event RefundIssued(address to, uint amount);\r\n\r\n    // Constructor to initialize auction details\r\n    constructor(address _creator, string memory _itemName, uint _startPrice, uint _durationInMinutes) {\r\n        auctionCreator = _creator;\r\n        itemName = _itemName;\r\n        startPrice = _startPrice;\r\n        endTime = block.timestamp + (_durationInMinutes * 1 minutes);\r\n    }\r\n\r\n    // Modifier to restrict actions before auction ends\r\n    modifier onlyBeforeEnd() {\r\n        require(block.timestamp < endTime, \"Auction already ended.\");\r\n        _;\r\n    }\r\n\r\n    // Modifier to restrict actions after auction ends\r\n    modifier onlyAfterEnd() {\r\n        require(block.timestamp >= endTime, \"Auction not yet ended.\");\r\n        _;\r\n    }\r\n\r\n    // Place a new bid\r\n    function placeBid() public payable onlyBeforeEnd nonReentrant {\r\n        require(msg.value > highestBid, \"There already is a higher or equal bid.\");\r\n\r\n        // Refund the previous highest bidder\r\n        if (highestBidder != address(0)) {\r\n            payable(highestBidder).transfer(highestBid);\r\n            emit RefundIssued(highestBidder, highestBid); // Log refund\r\n        }\r\n\r\n        // Update highest bidder and bid amount\r\n        highestBidder = msg.sender;\r\n        highestBid = msg.value;\r\n\r\n        emit NewHighestBid(msg.sender, msg.value); // Log new bid\r\n    }\r\n\r\n    // Check if the auction has ended\r\n    function isAuctionEnded() public view returns (bool) {\r\n        return block.timestamp >= endTime;\r\n    }\r\n\r\n    // End the auction and transfer the highest bid to the creator\r\n    function endAuction() public onlyAfterEnd nonReentrant {\r\n        require(!ended, \"Auction already ended.\");\r\n        require(msg.sender == auctionCreator, \"Only the creator can end the auction.\");\r\n        ended = true;\r\n\r\n        // Transfer highest bid to auction creator\r\n        payable(auctionCreator).transfer(highestBid);\r\n        emit AuctionEnded(highestBidder, highestBid); // Log auction result\r\n    }\r\n}\r\n",
  "sourcePath": "C:\\Users\\komma\\nft-auction-app\\contracts\\AuctionContracts.sol",
  "compiler": {
    "name": "solc",
    "version": "0.8.20+commit.a1b79de6.Emscripten.clang"
  },
  "schemaVersion": "3.4.16",
  "updatedAt": "2025-04-25T14:28:48.238Z",
  "devdoc": {
    "errors": {
      "ReentrancyGuardReentrantCall()": [
        {
          "details": "Unauthorized reentrant call."
        }
      ]
    },
    "kind": "dev",
    "methods": {},
    "version": 1
  },
  "userdoc": {
    "kind": "user",
    "methods": {},
    "version": 1
  }
}